{
  "contractName": "VendingMachine",
  "abi": [
    {
      "inputs": [],
      "stateMutability": "nonpayable",
      "type": "constructor"
    },
    {
      "inputs": [
        {
          "internalType": "address",
          "name": "",
          "type": "address"
        }
      ],
      "name": "donutBalances",
      "outputs": [
        {
          "internalType": "uint256",
          "name": "",
          "type": "uint256"
        }
      ],
      "stateMutability": "view",
      "type": "function",
      "constant": true
    },
    {
      "inputs": [],
      "name": "owner",
      "outputs": [
        {
          "internalType": "address",
          "name": "",
          "type": "address"
        }
      ],
      "stateMutability": "view",
      "type": "function",
      "constant": true
    },
    {
      "inputs": [],
      "name": "getVendingMachineBalance",
      "outputs": [
        {
          "internalType": "uint256",
          "name": "",
          "type": "uint256"
        }
      ],
      "stateMutability": "view",
      "type": "function",
      "constant": true
    },
    {
      "inputs": [
        {
          "internalType": "uint256",
          "name": "amount",
          "type": "uint256"
        }
      ],
      "name": "restock",
      "outputs": [],
      "stateMutability": "nonpayable",
      "type": "function"
    },
    {
      "inputs": [
        {
          "internalType": "uint256",
          "name": "amount",
          "type": "uint256"
        }
      ],
      "name": "purchase",
      "outputs": [],
      "stateMutability": "payable",
      "type": "function",
      "payable": true
    }
  ],
  "bytecode": "0x608060405234801561001057600080fd5b50336000806101000a81548173ffffffffffffffffffffffffffffffffffffffff021916908373ffffffffffffffffffffffffffffffffffffffff1602179055506064600160003073ffffffffffffffffffffffffffffffffffffffff1673ffffffffffffffffffffffffffffffffffffffff16815260200190815260200160002081905550610849806100a56000396000f3fe60806040526004361061004a5760003560e01c80638da5cb5b1461004f5780639a020d8a1461007a578063c21a702a146100b7578063e7644d34146100e0578063efef39a11461010b575b600080fd5b34801561005b57600080fd5b50610064610127565b6040516100719190610459565b60405180910390f35b34801561008657600080fd5b506100a1600480360381019061009c91906104a5565b61014b565b6040516100ae91906104eb565b60405180910390f35b3480156100c357600080fd5b506100de60048036038101906100d99190610532565b610163565b005b3480156100ec57600080fd5b506100f561024a565b60405161010291906104eb565b60405180910390f35b61012560048036038101906101209190610532565b610291565b005b60008054906101000a900473ffffffffffffffffffffffffffffffffffffffff1681565b60016020528060005260406000206000915090505481565b60008054906101000a900473ffffffffffffffffffffffffffffffffffffffff1673ffffffffffffffffffffffffffffffffffffffff163373ffffffffffffffffffffffffffffffffffffffff16146101f1576040517f08c379a00000000000000000000000000000000000000000000000000000000081526004016101e8906105e2565b60405180910390fd5b80600160003073ffffffffffffffffffffffffffffffffffffffff1673ffffffffffffffffffffffffffffffffffffffff16815260200190815260200160002060008282546102409190610631565b9250508190555050565b6000600160003073ffffffffffffffffffffffffffffffffffffffff1673ffffffffffffffffffffffffffffffffffffffff16815260200190815260200160002054905090565b671bc16d674ec80000816102a59190610687565b3410156102e7576040517f08c379a00000000000000000000000000000000000000000000000000000000081526004016102de90610753565b60405180910390fd5b80600160003073ffffffffffffffffffffffffffffffffffffffff1673ffffffffffffffffffffffffffffffffffffffff168152602001908152602001600020541015610369576040517f08c379a0000000000000000000000000000000000000000000000000000000008152600401610360906107bf565b60405180910390fd5b80600160003073ffffffffffffffffffffffffffffffffffffffff1673ffffffffffffffffffffffffffffffffffffffff16815260200190815260200160002060008282546103b891906107df565b9250508190555080600160003373ffffffffffffffffffffffffffffffffffffffff1673ffffffffffffffffffffffffffffffffffffffff168152602001908152602001600020600082825461040e9190610631565b9250508190555050565b600073ffffffffffffffffffffffffffffffffffffffff82169050919050565b600061044382610418565b9050919050565b61045381610438565b82525050565b600060208201905061046e600083018461044a565b92915050565b600080fd5b61048281610438565b811461048d57600080fd5b50565b60008135905061049f81610479565b92915050565b6000602082840312156104bb576104ba610474565b5b60006104c984828501610490565b91505092915050565b6000819050919050565b6104e5816104d2565b82525050565b600060208201905061050060008301846104dc565b92915050565b61050f816104d2565b811461051a57600080fd5b50565b60008135905061052c81610506565b92915050565b60006020828403121561054857610547610474565b5b60006105568482850161051d565b91505092915050565b600082825260208201905092915050565b7f4f6e6c7920746865206f776e65722063616e20726573746f636b20746869732060008201527f6d616368696e652e000000000000000000000000000000000000000000000000602082015250565b60006105cc60288361055f565b91506105d782610570565b604082019050919050565b600060208201905081810360008301526105fb816105bf565b9050919050565b7f4e487b7100000000000000000000000000000000000000000000000000000000600052601160045260246000fd5b600061063c826104d2565b9150610647836104d2565b9250827fffffffffffffffffffffffffffffffffffffffffffffffffffffffffffffffff0382111561067c5761067b610602565b5b828201905092915050565b6000610692826104d2565b915061069d836104d2565b9250817fffffffffffffffffffffffffffffffffffffffffffffffffffffffffffffffff04831182151516156106d6576106d5610602565b5b828202905092915050565b7f596f75206d75737420706179206174206c65617374203220657468657220706560008201527f7220646f6e75742e000000000000000000000000000000000000000000000000602082015250565b600061073d60288361055f565b9150610748826106e1565b604082019050919050565b6000602082019050818103600083015261076c81610730565b9050919050565b7f4e6f7420656e6f75676820646f6e75747320696e2073746f636b2e0000000000600082015250565b60006107a9601b8361055f565b91506107b482610773565b602082019050919050565b600060208201905081810360008301526107d88161079c565b9050919050565b60006107ea826104d2565b91506107f5836104d2565b92508282101561080857610807610602565b5b82820390509291505056fea2646970667358221220e7cfd8eadcefb135d62095813f98890045faeb0865f6200baffd3085f9e4d98764736f6c634300080b0033",
  "immutableReferences": {},
  "source": "//SPDX-License-Identifier: MIT\r\n\r\npragma solidity ^0.8.11;\r\n\r\ncontract VendingMachine {\r\n    address public owner;\r\n    mapping(address => uint) public donutBalances;\r\n\r\n    constructor() {\r\n        owner = msg.sender;\r\n        donutBalances[address(this)] = 100; \r\n    }\r\n\r\n    function getVendingMachineBalance() public view returns (uint) {\r\n        return donutBalances[address(this)];\r\n    }\r\n\r\n    function restock(uint amount) public {\r\n        require(msg.sender == owner, \"Only the owner can restock this machine.\");\r\n        donutBalances[address(this)] += amount;\r\n    }\r\n\r\n    function purchase(uint amount) public payable {\r\n        //verify amount coming in is enough for donut\r\n        require(msg.value >= amount * 2 ether, \"You must pay at least 2 ether per donut.\");\r\n        require(donutBalances[address(this)] >= amount, \"Not enough donuts in stock.\");\r\n\r\n        //subtract from machine and add to caller's wallet\r\n        donutBalances[address(this)] -= amount;\r\n        donutBalances[msg.sender] += amount;\r\n    }\r\n}",
  "sourcePath": "C:\\Users\\Nick\\Documents\\GitHub\\MachineDapp\\vending-machine-dapp\\vending-machine\\contracts\\VendingMachine.sol",
  "compiler": {
    "name": "solc",
    "version": "0.8.11+commit.d7f03943.Emscripten.clang"
  },
  "schemaVersion": "3.4.6",
  "updatedAt": "2022-04-06T18:48:01.087Z",
  "networkType": "ethereum",
  "devdoc": {
    "kind": "dev",
    "methods": {},
    "version": 1
  },
  "userdoc": {
    "kind": "user",
    "methods": {},
    "version": 1
  }
}